{
  "contractName": "dos",
  "abi": [
    {
      "inputs": [],
      "stateMutability": "nonpayable",
      "type": "constructor"
    },
    {
      "inputs": [
        {
          "internalType": "address",
          "name": "",
          "type": "address"
        }
      ],
      "name": "User",
      "outputs": [
        {
          "internalType": "uint256",
          "name": "user_id",
          "type": "uint256"
        },
        {
          "internalType": "address",
          "name": "addresse",
          "type": "address"
        },
        {
          "internalType": "uint256",
          "name": "age",
          "type": "uint256"
        },
        {
          "internalType": "string",
          "name": "Profile_Desc",
          "type": "string"
        }
      ],
      "stateMutability": "view",
      "type": "function",
      "constant": true
    },
    {
      "inputs": [
        {
          "internalType": "uint256",
          "name": "age",
          "type": "uint256"
        }
      ],
      "name": "New_User",
      "outputs": [],
      "stateMutability": "nonpayable",
      "type": "function"
    }
  ],
  "bytecode": "0x608060405273793d2996fa121f40be379dc0204f8c91520b08846000806101000a81548173ffffffffffffffffffffffffffffffffffffffff021916908373ffffffffffffffffffffffffffffffffffffffff1602179055506001805534801561006857600080fd5b506100716101e4565b6040518060800160405280600081526020016000809054906101000a900473ffffffffffffffffffffffffffffffffffffffff1673ffffffffffffffffffffffffffffffffffffffff168152602001601681526020016040518060400160405280600781526020017f43726561746f7200000000000000000000000000000000000000000000000000815250815250905080600260008060009054906101000a900473ffffffffffffffffffffffffffffffffffffffff1673ffffffffffffffffffffffffffffffffffffffff1673ffffffffffffffffffffffffffffffffffffffff1681526020019081526020016000206000820151816000015560208201518160010160006101000a81548173ffffffffffffffffffffffffffffffffffffffff021916908373ffffffffffffffffffffffffffffffffffffffff1602179055506040820151816002015560608201518160030190805190602001906101da929190610222565b50905050506102c7565b604051806080016040528060008152602001600073ffffffffffffffffffffffffffffffffffffffff16815260200160008152602001606081525090565b828054600181600116156101000203166002900490600052602060002090601f016020900481019282601f1061026357805160ff1916838001178555610291565b82800160010185558215610291579182015b82811115610290578251825591602001919060010190610275565b5b50905061029e91906102a2565b5090565b6102c491905b808211156102c05760008160009055506001016102a8565b5090565b90565b610498806102d66000396000f3fe608060405234801561001057600080fd5b50600436106100365760003560e01c8063230eb9c61461003b578063d9b7b32f14610139575b600080fd5b61007d6004803603602081101561005157600080fd5b81019080803573ffffffffffffffffffffffffffffffffffffffff169060200190929190505050610167565b604051808581526020018473ffffffffffffffffffffffffffffffffffffffff1673ffffffffffffffffffffffffffffffffffffffff16815260200183815260200180602001828103825283818151815260200191508051906020019080838360005b838110156100fb5780820151818401526020810190506100e0565b50505050905090810190601f1680156101285780820380516001836020036101000a031916815260200191505b509550505050505060405180910390f35b6101656004803603602081101561014f57600080fd5b810190808035906020019092919050505061024f565b005b60026020528060005260406000206000915090508060000154908060010160009054906101000a900473ffffffffffffffffffffffffffffffffffffffff1690806002015490806003018054600181600116156101000203166002900480601f0160208091040260200160405190810160405280929190818152602001828054600181600116156101000203166002900480156102455780601f1061021a57610100808354040283529160200191610245565b820191906000526020600020905b81548152906001019060200180831161022857829003601f168201915b5050505050905084565b61025761037f565b604051806080016040528061026a610365565b81526020013373ffffffffffffffffffffffffffffffffffffffff16815260200183815260200160405180602001604052806000815250815250905080600260003373ffffffffffffffffffffffffffffffffffffffff1673ffffffffffffffffffffffffffffffffffffffff1681526020019081526020016000206000820151816000015560208201518160010160006101000a81548173ffffffffffffffffffffffffffffffffffffffff021916908373ffffffffffffffffffffffffffffffffffffffff16021790555060408201518160020155606082015181600301908051906020019061035d9291906103bd565b509050505050565b600060018060008282540192505081905550600154905090565b604051806080016040528060008152602001600073ffffffffffffffffffffffffffffffffffffffff16815260200160008152602001606081525090565b828054600181600116156101000203166002900490600052602060002090601f016020900481019282601f106103fe57805160ff191683800117855561042c565b8280016001018555821561042c579182015b8281111561042b578251825591602001919060010190610410565b5b509050610439919061043d565b5090565b61045f91905b8082111561045b576000816000905550600101610443565b5090565b9056fea264697066735822122020d3355c44fb2ed74c062438f9b0db71e577696143cf7c03517784dac06da0b764736f6c63430006020033",
  "source": "pragma solidity ^0.6.0;\r\n\r\ncontract dos\r\n{\r\n    constructor() public\r\n    {\r\n        Users memory mee = Users(0,moi,22,'Creator');\r\n        User[moi]=mee;\r\n    }\r\n\r\n    address moi = 0x793d2996FA121F40Be379dc0204f8C91520B0884;\r\n\r\n    uint256 Last_Id =1;\r\n\r\n    struct Users \r\n    {\r\n        uint256 user_id;\r\n        address addresse;\r\n        uint256 age;\r\n        string Profile_Desc;\r\n        //add profile specs later\r\n    }\r\n\r\n    mapping(address=>Users) public User;\r\n\r\n    function New_Id() internal returns(uint256)\r\n    {\r\n        Last_Id +=1;\r\n        return Last_Id;\r\n    }\r\n\r\n     function  New_User(uint256 age)  public\r\n    {\r\n        Users memory new_person=Users(New_Id(),msg.sender,age,'');\r\n        User[msg.sender]=new_person;\r\n\r\n    }\r\n\r\n    \r\n}",
  "sourcePath": "H:\\Desktop\\projet\\Backend\\contracts\\dos.sol",
  "compiler": {
    "name": "solc",
    "version": "0.6.2+commit.bacdbe57.Emscripten.clang"
  },
  "schemaVersion": "3.4.11",
  "updatedAt": "2023-04-01T10:15:53.586Z",
  "networkType": "ethereum",
  "devdoc": {
    "methods": {}
  },
  "userdoc": {
    "methods": {}
  }
}